{
  "_format": "hh-sol-artifact-1",
  "contractName": "MyEpicNFT",
  "sourceName": "contracts/MyEpicNFT.sol",
  "abi": [
    {
      "inputs": [],
      "stateMutability": "nonpayable",
      "type": "constructor"
    },
    {
      "anonymous": false,
      "inputs": [
        {
          "indexed": true,
          "internalType": "address",
          "name": "owner",
          "type": "address"
        },
        {
          "indexed": true,
          "internalType": "address",
          "name": "approved",
          "type": "address"
        },
        {
          "indexed": true,
          "internalType": "uint256",
          "name": "tokenId",
          "type": "uint256"
        }
      ],
      "name": "Approval",
      "type": "event"
    },
    {
      "anonymous": false,
      "inputs": [
        {
          "indexed": true,
          "internalType": "address",
          "name": "owner",
          "type": "address"
        },
        {
          "indexed": true,
          "internalType": "address",
          "name": "operator",
          "type": "address"
        },
        {
          "indexed": false,
          "internalType": "bool",
          "name": "approved",
          "type": "bool"
        }
      ],
      "name": "ApprovalForAll",
      "type": "event"
    },
    {
      "anonymous": false,
      "inputs": [
        {
          "indexed": false,
          "internalType": "address",
          "name": "sender",
          "type": "address"
        },
        {
          "indexed": false,
          "internalType": "uint256",
          "name": "tokenId",
          "type": "uint256"
        }
      ],
      "name": "NewEpicNFTMinted",
      "type": "event"
    },
    {
      "anonymous": false,
      "inputs": [
        {
          "indexed": true,
          "internalType": "address",
          "name": "from",
          "type": "address"
        },
        {
          "indexed": true,
          "internalType": "address",
          "name": "to",
          "type": "address"
        },
        {
          "indexed": true,
          "internalType": "uint256",
          "name": "tokenId",
          "type": "uint256"
        }
      ],
      "name": "Transfer",
      "type": "event"
    },
    {
      "inputs": [
        {
          "internalType": "address",
          "name": "to",
          "type": "address"
        },
        {
          "internalType": "uint256",
          "name": "tokenId",
          "type": "uint256"
        }
      ],
      "name": "approve",
      "outputs": [],
      "stateMutability": "nonpayable",
      "type": "function"
    },
    {
      "inputs": [
        {
          "internalType": "address",
          "name": "owner",
          "type": "address"
        }
      ],
      "name": "balanceOf",
      "outputs": [
        {
          "internalType": "uint256",
          "name": "",
          "type": "uint256"
        }
      ],
      "stateMutability": "view",
      "type": "function"
    },
    {
      "inputs": [
        {
          "internalType": "uint256",
          "name": "tokenId",
          "type": "uint256"
        }
      ],
      "name": "getApproved",
      "outputs": [
        {
          "internalType": "address",
          "name": "",
          "type": "address"
        }
      ],
      "stateMutability": "view",
      "type": "function"
    },
    {
      "inputs": [
        {
          "internalType": "address",
          "name": "owner",
          "type": "address"
        },
        {
          "internalType": "address",
          "name": "operator",
          "type": "address"
        }
      ],
      "name": "isApprovedForAll",
      "outputs": [
        {
          "internalType": "bool",
          "name": "",
          "type": "bool"
        }
      ],
      "stateMutability": "view",
      "type": "function"
    },
    {
      "inputs": [],
      "name": "makeAnEpicNFT",
      "outputs": [],
      "stateMutability": "nonpayable",
      "type": "function"
    },
    {
      "inputs": [],
      "name": "name",
      "outputs": [
        {
          "internalType": "string",
          "name": "",
          "type": "string"
        }
      ],
      "stateMutability": "view",
      "type": "function"
    },
    {
      "inputs": [
        {
          "internalType": "uint256",
          "name": "tokenId",
          "type": "uint256"
        }
      ],
      "name": "ownerOf",
      "outputs": [
        {
          "internalType": "address",
          "name": "",
          "type": "address"
        }
      ],
      "stateMutability": "view",
      "type": "function"
    },
    {
      "inputs": [
        {
          "internalType": "uint256",
          "name": "tokenId",
          "type": "uint256"
        },
        {
          "internalType": "uint256",
          "name": "i",
          "type": "uint256"
        }
      ],
      "name": "pickRandomWord",
      "outputs": [
        {
          "internalType": "string",
          "name": "",
          "type": "string"
        }
      ],
      "stateMutability": "view",
      "type": "function"
    },
    {
      "inputs": [
        {
          "internalType": "address",
          "name": "from",
          "type": "address"
        },
        {
          "internalType": "address",
          "name": "to",
          "type": "address"
        },
        {
          "internalType": "uint256",
          "name": "tokenId",
          "type": "uint256"
        }
      ],
      "name": "safeTransferFrom",
      "outputs": [],
      "stateMutability": "nonpayable",
      "type": "function"
    },
    {
      "inputs": [
        {
          "internalType": "address",
          "name": "from",
          "type": "address"
        },
        {
          "internalType": "address",
          "name": "to",
          "type": "address"
        },
        {
          "internalType": "uint256",
          "name": "tokenId",
          "type": "uint256"
        },
        {
          "internalType": "bytes",
          "name": "_data",
          "type": "bytes"
        }
      ],
      "name": "safeTransferFrom",
      "outputs": [],
      "stateMutability": "nonpayable",
      "type": "function"
    },
    {
      "inputs": [
        {
          "internalType": "address",
          "name": "operator",
          "type": "address"
        },
        {
          "internalType": "bool",
          "name": "approved",
          "type": "bool"
        }
      ],
      "name": "setApprovalForAll",
      "outputs": [],
      "stateMutability": "nonpayable",
      "type": "function"
    },
    {
      "inputs": [
        {
          "internalType": "bytes4",
          "name": "interfaceId",
          "type": "bytes4"
        }
      ],
      "name": "supportsInterface",
      "outputs": [
        {
          "internalType": "bool",
          "name": "",
          "type": "bool"
        }
      ],
      "stateMutability": "view",
      "type": "function"
    },
    {
      "inputs": [],
      "name": "symbol",
      "outputs": [
        {
          "internalType": "string",
          "name": "",
          "type": "string"
        }
      ],
      "stateMutability": "view",
      "type": "function"
    },
    {
      "inputs": [
        {
          "internalType": "uint256",
          "name": "tokenId",
          "type": "uint256"
        }
      ],
      "name": "tokenURI",
      "outputs": [
        {
          "internalType": "string",
          "name": "",
          "type": "string"
        }
      ],
      "stateMutability": "view",
      "type": "function"
    },
    {
      "inputs": [
        {
          "internalType": "address",
          "name": "from",
          "type": "address"
        },
        {
          "internalType": "address",
          "name": "to",
          "type": "address"
        },
        {
          "internalType": "uint256",
          "name": "tokenId",
          "type": "uint256"
        }
      ],
      "name": "transferFrom",
      "outputs": [],
      "stateMutability": "nonpayable",
      "type": "function"
    }
  ],
  "bytecode": "0x608060405260405180610160016040528061012f815260200162003e0b61012f9139600890805190602001906200003892919062000347565b506040518060a001604052806040518060400160405280600181526020017f500000000000000000000000000000000000000000000000000000000000000081525081526020016040518060400160405280600181526020017f410000000000000000000000000000000000000000000000000000000000000081525081526020016040518060400160405280600181526020017f500000000000000000000000000000000000000000000000000000000000000081525081526020016040518060400160405280600181526020017f500000000000000000000000000000000000000000000000000000000000000081525081526020016040518060400160405280600181526020017f590000000000000000000000000000000000000000000000000000000000000081525081525060099060056200017b929190620003d8565b503480156200018957600080fd5b506040518060400160405280601381526020017f4765742050415050592c20696620752063616e000000000000000000000000008152506040518060400160405280600581526020017f504150505900000000000000000000000000000000000000000000000000000081525081600090805190602001906200020e92919062000347565b5080600190805190602001906200022792919062000347565b505050620002756040518060400160405280601881526020017f54686973206973206d79204e465420636f6e74726163742e00000000000000008152506200027b60201b62000f231760201c565b620005f9565b6200031b816040516024016200029291906200050d565b6040516020818303038152906040527f41304fac000000000000000000000000000000000000000000000000000000007bffffffffffffffffffffffffffffffffffffffffffffffffffffffff19166020820180517bffffffffffffffffffffffffffffffffffffffffffffffffffffffff83818316178352505050506200031e60201b60201c565b50565b60008151905060006a636f6e736f6c652e6c6f679050602083016000808483855afa5050505050565b828054620003559062000583565b90600052602060002090601f016020900481019282620003795760008555620003c5565b82601f106200039457805160ff1916838001178555620003c5565b82800160010185558215620003c5579182015b82811115620003c4578251825591602001919060010190620003a7565b5b509050620003d491906200043f565b5090565b8280548282559060005260206000209081019282156200042c579160200282015b828111156200042b5782518290805190602001906200041a92919062000347565b5091602001919060010190620003f9565b5b5090506200043b91906200045e565b5090565b5b808211156200045a57600081600090555060010162000440565b5090565b5b8082111562000482576000818162000478919062000486565b506001016200045f565b5090565b508054620004949062000583565b6000825580601f10620004a85750620004c9565b601f016020900490600052602060002090810190620004c891906200043f565b5b50565b6000620004d98262000531565b620004e581856200053c565b9350620004f78185602086016200054d565b6200050281620005e8565b840191505092915050565b60006020820190508181036000830152620005298184620004cc565b905092915050565b600081519050919050565b600082825260208201905092915050565b60005b838110156200056d57808201518184015260208101905062000550565b838111156200057d576000848401525b50505050565b600060028204905060018216806200059c57607f821691505b60208210811415620005b357620005b2620005b9565b5b50919050565b7f4e487b7100000000000000000000000000000000000000000000000000000000600052602260045260246000fd5b6000601f19601f8301169050919050565b61380280620006096000396000f3fe608060405234801561001057600080fd5b50600436106100f55760003560e01c806370a0823111610097578063b88d4fde11610066578063b88d4fde14610296578063c87b56dd146102b2578063de9d132f146102e2578063e985e9c5146102ec576100f5565b806370a08231146101fc57806395d89b411461022c578063a22cb4651461024a578063a75b34d514610266576100f5565b8063095ea7b3116100d3578063095ea7b31461017857806323b872dd1461019457806342842e0e146101b05780636352211e146101cc576100f5565b806301ffc9a7146100fa57806306fdde031461012a578063081812fc14610148575b600080fd5b610114600480360381019061010f91906123eb565b61031c565b6040516101219190612a81565b60405180910390f35b6101326103fe565b60405161013f9190612a9c565b60405180910390f35b610162600480360381019061015d919061243d565b610490565b60405161016f91906129f1565b60405180910390f35b610192600480360381019061018d91906123af565b610515565b005b6101ae60048036038101906101a991906122a9565b61062d565b005b6101ca60048036038101906101c591906122a9565b61068d565b005b6101e660048036038101906101e1919061243d565b6106ad565b6040516101f391906129f1565b60405180910390f35b61021660048036038101906102119190612244565b61075f565b6040516102239190612d2c565b60405180910390f35b610234610817565b6040516102419190612a9c565b60405180910390f35b610264600480360381019061025f9190612373565b6108a9565b005b610280600480360381019061027b9190612466565b6108bf565b60405161028d9190612a9c565b60405180910390f35b6102b060048036038101906102ab91906122f8565b610a60565b005b6102cc60048036038101906102c7919061243d565b610ac2565b6040516102d99190612a9c565b60405180910390f35b6102ea610c14565b005b6103066004803603810190610301919061226d565b610e8f565b6040516103139190612a81565b60405180910390f35b60007f80ac58cd000000000000000000000000000000000000000000000000000000007bffffffffffffffffffffffffffffffffffffffffffffffffffffffff1916827bffffffffffffffffffffffffffffffffffffffffffffffffffffffff191614806103e757507f5b5e139f000000000000000000000000000000000000000000000000000000007bffffffffffffffffffffffffffffffffffffffffffffffffffffffff1916827bffffffffffffffffffffffffffffffffffffffffffffffffffffffff1916145b806103f757506103f682610fbc565b5b9050919050565b60606000805461040d90612fc0565b80601f016020809104026020016040519081016040528092919081815260200182805461043990612fc0565b80156104865780601f1061045b57610100808354040283529160200191610486565b820191906000526020600020905b81548152906001019060200180831161046957829003601f168201915b5050505050905090565b600061049b82611026565b6104da576040517f08c379a00000000000000000000000000000000000000000000000000000000081526004016104d190612cac565b60405180910390fd5b6004600083815260200190815260200160002060009054906101000a900473ffffffffffffffffffffffffffffffffffffffff169050919050565b6000610520826106ad565b90508073ffffffffffffffffffffffffffffffffffffffff168373ffffffffffffffffffffffffffffffffffffffff161415610591576040517f08c379a000000000000000000000000000000000000000000000000000000000815260040161058890612cec565b60405180910390fd5b8073ffffffffffffffffffffffffffffffffffffffff166105b0611092565b73ffffffffffffffffffffffffffffffffffffffff1614806105df57506105de816105d9611092565b610e8f565b5b61061e576040517f08c379a000000000000000000000000000000000000000000000000000000000815260040161061590612bec565b60405180910390fd5b610628838361109a565b505050565b61063e610638611092565b82611153565b61067d576040517f08c379a000000000000000000000000000000000000000000000000000000000815260040161067490612d0c565b60405180910390fd5b610688838383611231565b505050565b6106a883838360405180602001604052806000815250610a60565b505050565b6000806002600084815260200190815260200160002060009054906101000a900473ffffffffffffffffffffffffffffffffffffffff169050600073ffffffffffffffffffffffffffffffffffffffff168173ffffffffffffffffffffffffffffffffffffffff161415610756576040517f08c379a000000000000000000000000000000000000000000000000000000000815260040161074d90612c2c565b60405180910390fd5b80915050919050565b60008073ffffffffffffffffffffffffffffffffffffffff168273ffffffffffffffffffffffffffffffffffffffff1614156107d0576040517f08c379a00000000000000000000000000000000000000000000000000000000081526004016107c790612c0c565b60405180910390fd5b600360008373ffffffffffffffffffffffffffffffffffffffff1673ffffffffffffffffffffffffffffffffffffffff168152602001908152602001600020549050919050565b60606001805461082690612fc0565b80601f016020809104026020016040519081016040528092919081815260200182805461085290612fc0565b801561089f5780601f106108745761010080835404028352916020019161089f565b820191906000526020600020905b81548152906001019060200180831161088257829003601f168201915b5050505050905090565b6108bb6108b4611092565b8383611498565b5050565b606060006108f742846108d187611605565b6040516020016108e3939291906129b8565b6040516020818303038152906040526117b2565b90506109386040518060400160405280600b81526020017f72616e6420736565643a20000000000000000000000000000000000000000000815250826117e5565b600980549050816109499190613076565b905061098a6040518060400160405280601181526020017f72616e6420666972737420776f72643a20000000000000000000000000000000815250826117e5565b600981815481106109c4577f4e487b7100000000000000000000000000000000000000000000000000000000600052603260045260246000fd5b9060005260206000200180546109d990612fc0565b80601f0160208091040260200160405190810160405280929190818152602001828054610a0590612fc0565b8015610a525780601f10610a2757610100808354040283529160200191610a52565b820191906000526020600020905b815481529060010190602001808311610a3557829003601f168201915b505050505091505092915050565b610a71610a6b611092565b83611153565b610ab0576040517f08c379a0000000000000000000000000000000000000000000000000000000008152600401610aa790612d0c565b60405180910390fd5b610abc84848484611881565b50505050565b6060610acd82611026565b610b0c576040517f08c379a0000000000000000000000000000000000000000000000000000000008152600401610b0390612c8c565b60405180910390fd5b6000600660008481526020019081526020016000208054610b2c90612fc0565b80601f0160208091040260200160405190810160405280929190818152602001828054610b5890612fc0565b8015610ba55780601f10610b7a57610100808354040283529160200191610ba5565b820191906000526020600020905b815481529060010190602001808311610b8857829003601f168201915b505050505090506000610bb66118dd565b9050600081511415610bcc578192505050610c0f565b600082511115610c01578082604051602001610be99291906128fe565b60405160208183030381529060405292505050610c0f565b610c0a846118f4565b925050505b919050565b6000610c20600761199b565b9050600060405180602001604052806000815250905060005b6005811015610c825781610c4d84836108bf565b604051602001610c5e9291906128fe565b60405160208183030381529060405291508080610c7a90613023565b915050610c39565b506000600882604051602001610c99929190612922565b6040516020818303038152906040529050610ce86040518060400160405280601581526020017f0a2d2d2d2d2d205356472064617461202d2d2d2d2d0000000000000000000000815250610f23565b610cf181610f23565b610d2f6040518060400160405280601581526020017f2d2d2d2d2d2d2d2d2d2d2d2d2d2d2d2d2d2d2d2d0a0000000000000000000000815250610f23565b6000610d6383610d3e846119a9565b604051602001610d4f929190612951565b6040516020818303038152906040526119a9565b9050600081604051602001610d789190612996565b6040516020818303038152906040529050610dc76040518060400160405280601581526020017f0a2d2d2d2d2d20546f6b656e20555249202d2d2d2d0000000000000000000000815250610f23565b610dd081610f23565b610e0e6040518060400160405280601581526020017f2d2d2d2d2d2d2d2d2d2d2d2d2d2d2d2d2d2d2d2d0a0000000000000000000000815250610f23565b610e183386611b67565b610e228582611b85565b610e45604051806060016040528060258152602001613768602591398633611bf9565b610e4f6007611c98565b7febb98688741ffa4c7589bf325de30cf7becb63de567842e1ccdb6cb949fdc82c3386604051610e80929190612a58565b60405180910390a15050505050565b6000600560008473ffffffffffffffffffffffffffffffffffffffff1673ffffffffffffffffffffffffffffffffffffffff16815260200190815260200160002060008373ffffffffffffffffffffffffffffffffffffffff1673ffffffffffffffffffffffffffffffffffffffff16815260200190815260200160002060009054906101000a900460ff16905092915050565b610fb981604051602401610f379190612a9c565b6040516020818303038152906040527f41304fac000000000000000000000000000000000000000000000000000000007bffffffffffffffffffffffffffffffffffffffffffffffffffffffff19166020820180517bffffffffffffffffffffffffffffffffffffffffffffffffffffffff8381831617835250505050611cae565b50565b60007f01ffc9a7000000000000000000000000000000000000000000000000000000007bffffffffffffffffffffffffffffffffffffffffffffffffffffffff1916827bffffffffffffffffffffffffffffffffffffffffffffffffffffffff1916149050919050565b60008073ffffffffffffffffffffffffffffffffffffffff166002600084815260200190815260200160002060009054906101000a900473ffffffffffffffffffffffffffffffffffffffff1673ffffffffffffffffffffffffffffffffffffffff1614159050919050565b600033905090565b816004600083815260200190815260200160002060006101000a81548173ffffffffffffffffffffffffffffffffffffffff021916908373ffffffffffffffffffffffffffffffffffffffff160217905550808273ffffffffffffffffffffffffffffffffffffffff1661110d836106ad565b73ffffffffffffffffffffffffffffffffffffffff167f8c5be1e5ebec7d5bd14f71427d1e84f3dd0314c0f7b2291e5b200ac8c7c3b92560405160405180910390a45050565b600061115e82611026565b61119d576040517f08c379a000000000000000000000000000000000000000000000000000000000815260040161119490612bcc565b60405180910390fd5b60006111a8836106ad565b90508073ffffffffffffffffffffffffffffffffffffffff168473ffffffffffffffffffffffffffffffffffffffff16148061121757508373ffffffffffffffffffffffffffffffffffffffff166111ff84610490565b73ffffffffffffffffffffffffffffffffffffffff16145b8061122857506112278185610e8f565b5b91505092915050565b8273ffffffffffffffffffffffffffffffffffffffff16611251826106ad565b73ffffffffffffffffffffffffffffffffffffffff16146112a7576040517f08c379a000000000000000000000000000000000000000000000000000000000815260040161129e90612b4c565b60405180910390fd5b600073ffffffffffffffffffffffffffffffffffffffff168273ffffffffffffffffffffffffffffffffffffffff161415611317576040517f08c379a000000000000000000000000000000000000000000000000000000000815260040161130e90612b8c565b60405180910390fd5b611322838383611cd7565b61132d60008261109a565b6001600360008573ffffffffffffffffffffffffffffffffffffffff1673ffffffffffffffffffffffffffffffffffffffff168152602001908152602001600020600082825461137d9190612ed6565b925050819055506001600360008473ffffffffffffffffffffffffffffffffffffffff1673ffffffffffffffffffffffffffffffffffffffff16815260200190815260200160002060008282546113d49190612df5565b92505081905550816002600083815260200190815260200160002060006101000a81548173ffffffffffffffffffffffffffffffffffffffff021916908373ffffffffffffffffffffffffffffffffffffffff160217905550808273ffffffffffffffffffffffffffffffffffffffff168473ffffffffffffffffffffffffffffffffffffffff167fddf252ad1be2c89b69c2b068fc378daa952ba7f163c4a11628f55a4df523b3ef60405160405180910390a4611493838383611cdc565b505050565b8173ffffffffffffffffffffffffffffffffffffffff168373ffffffffffffffffffffffffffffffffffffffff161415611507576040517f08c379a00000000000000000000000000000000000000000000000000000000081526004016114fe90612bac565b60405180910390fd5b80600560008573ffffffffffffffffffffffffffffffffffffffff1673ffffffffffffffffffffffffffffffffffffffff16815260200190815260200160002060008473ffffffffffffffffffffffffffffffffffffffff1673ffffffffffffffffffffffffffffffffffffffff16815260200190815260200160002060006101000a81548160ff0219169083151502179055508173ffffffffffffffffffffffffffffffffffffffff168373ffffffffffffffffffffffffffffffffffffffff167f17307eab39ab6107e8899845ad3d59bd9653f200f220920489ca2b5937696c31836040516115f89190612a81565b60405180910390a3505050565b6060600082141561164d576040518060400160405280600181526020017f300000000000000000000000000000000000000000000000000000000000000081525090506117ad565b600082905060005b6000821461167f57808061166890613023565b915050600a826116789190612e4b565b9150611655565b60008167ffffffffffffffff8111156116c1577f4e487b7100000000000000000000000000000000000000000000000000000000600052604160045260246000fd5b6040519080825280601f01601f1916602001820160405280156116f35781602001600182028036833780820191505090505b5090505b600085146117a65760018261170c9190612ed6565b9150600a8561171b9190613076565b60306117279190612df5565b60f81b818381518110611763577f4e487b7100000000000000000000000000000000000000000000000000000000600052603260045260246000fd5b60200101907effffffffffffffffffffffffffffffffffffffffffffffffffffffffffffff1916908160001a905350600a8561179f9190612e4b565b94506116f7565b8093505050505b919050565b6000816040516020016117c591906128e7565b6040516020818303038152906040528051906020012060001c9050919050565b61187d82826040516024016117fb929190612abe565b6040516020818303038152906040527f9710a9d0000000000000000000000000000000000000000000000000000000007bffffffffffffffffffffffffffffffffffffffffffffffffffffffff19166020820180517bffffffffffffffffffffffffffffffffffffffffffffffffffffffff8381831617835250505050611cae565b5050565b61188c848484611231565b61189884848484611ce1565b6118d7576040517f08c379a00000000000000000000000000000000000000000000000000000000081526004016118ce90612b2c565b60405180910390fd5b50505050565b606060405180602001604052806000815250905090565b60606118ff82611026565b61193e576040517f08c379a000000000000000000000000000000000000000000000000000000000815260040161193590612ccc565b60405180910390fd5b60006119486118dd565b905060008151116119685760405180602001604052806000815250611993565b8061197284611605565b6040516020016119839291906128fe565b6040516020818303038152906040525b915050919050565b600081600001549050919050565b606060008251905060008114156119d25760405180602001604052806000815250915050611b62565b600060036002836119e39190612df5565b6119ed9190612e4b565b60046119f99190612e7c565b90506000602082611a0a9190612df5565b67ffffffffffffffff811115611a49577f4e487b7100000000000000000000000000000000000000000000000000000000600052604160045260246000fd5b6040519080825280601f01601f191660200182016040528015611a7b5781602001600182028036833780820191505090505b509050600060405180606001604052806040815260200161378d604091399050600181016020830160005b86811015611b1f5760038101905062ffffff818a015116603f8160121c168401518060081b905060ff603f83600c1c1686015116810190508060081b905060ff603f8360061c1686015116810190508060081b905060ff603f831686015116810190508060e01b90508084526004840193505050611aa6565b506003860660018114611b395760028114611b4957611b54565b613d3d60f01b6002830352611b54565b603d60f81b60018303525b508484525050819450505050505b919050565b611b81828260405180602001604052806000815250611e78565b5050565b611b8e82611026565b611bcd576040517f08c379a0000000000000000000000000000000000000000000000000000000008152600401611bc490612c4c565b60405180910390fd5b80600660008481526020019081526020016000209080519060200190611bf49291906120d0565b505050565b611c93838383604051602401611c1193929190612aee565b6040516020818303038152906040527fe3849f79000000000000000000000000000000000000000000000000000000007bffffffffffffffffffffffffffffffffffffffffffffffffffffffff19166020820180517bffffffffffffffffffffffffffffffffffffffffffffffffffffffff8381831617835250505050611cae565b505050565b6001816000016000828254019250508190555050565b60008151905060006a636f6e736f6c652e6c6f679050602083016000808483855afa5050505050565b505050565b505050565b6000611d028473ffffffffffffffffffffffffffffffffffffffff16611ed3565b15611e6b578373ffffffffffffffffffffffffffffffffffffffff1663150b7a02611d2b611092565b8786866040518563ffffffff1660e01b8152600401611d4d9493929190612a0c565b602060405180830381600087803b158015611d6757600080fd5b505af1925050508015611d9857506040513d601f19601f82011682018060405250810190611d959190612414565b60015b611e1b573d8060008114611dc8576040519150601f19603f3d011682016040523d82523d6000602084013e611dcd565b606091505b50600081511415611e13576040517f08c379a0000000000000000000000000000000000000000000000000000000008152600401611e0a90612b2c565b60405180910390fd5b805181602001fd5b63150b7a0260e01b7bffffffffffffffffffffffffffffffffffffffffffffffffffffffff1916817bffffffffffffffffffffffffffffffffffffffffffffffffffffffff191614915050611e70565b600190505b949350505050565b611e828383611ef6565b611e8f6000848484611ce1565b611ece576040517f08c379a0000000000000000000000000000000000000000000000000000000008152600401611ec590612b2c565b60405180910390fd5b505050565b6000808273ffffffffffffffffffffffffffffffffffffffff163b119050919050565b600073ffffffffffffffffffffffffffffffffffffffff168273ffffffffffffffffffffffffffffffffffffffff161415611f66576040517f08c379a0000000000000000000000000000000000000000000000000000000008152600401611f5d90612c6c565b60405180910390fd5b611f6f81611026565b15611faf576040517f08c379a0000000000000000000000000000000000000000000000000000000008152600401611fa690612b6c565b60405180910390fd5b611fbb60008383611cd7565b6001600360008473ffffffffffffffffffffffffffffffffffffffff1673ffffffffffffffffffffffffffffffffffffffff168152602001908152602001600020600082825461200b9190612df5565b92505081905550816002600083815260200190815260200160002060006101000a81548173ffffffffffffffffffffffffffffffffffffffff021916908373ffffffffffffffffffffffffffffffffffffffff160217905550808273ffffffffffffffffffffffffffffffffffffffff16600073ffffffffffffffffffffffffffffffffffffffff167fddf252ad1be2c89b69c2b068fc378daa952ba7f163c4a11628f55a4df523b3ef60405160405180910390a46120cc60008383611cdc565b5050565b8280546120dc90612fc0565b90600052602060002090601f0160209004810192826120fe5760008555612145565b82601f1061211757805160ff1916838001178555612145565b82800160010185558215612145579182015b82811115612144578251825591602001919060010190612129565b5b5090506121529190612156565b5090565b5b8082111561216f576000816000905550600101612157565b5090565b600061218661218184612d6c565b612d47565b90508281526020810184848401111561219e57600080fd5b6121a9848285612f7e565b509392505050565b6000813590506121c08161370b565b92915050565b6000813590506121d581613722565b92915050565b6000813590506121ea81613739565b92915050565b6000815190506121ff81613739565b92915050565b600082601f83011261221657600080fd5b8135612226848260208601612173565b91505092915050565b60008135905061223e81613750565b92915050565b60006020828403121561225657600080fd5b6000612264848285016121b1565b91505092915050565b6000806040838503121561228057600080fd5b600061228e858286016121b1565b925050602061229f858286016121b1565b9150509250929050565b6000806000606084860312156122be57600080fd5b60006122cc868287016121b1565b93505060206122dd868287016121b1565b92505060406122ee8682870161222f565b9150509250925092565b6000806000806080858703121561230e57600080fd5b600061231c878288016121b1565b945050602061232d878288016121b1565b935050604061233e8782880161222f565b925050606085013567ffffffffffffffff81111561235b57600080fd5b61236787828801612205565b91505092959194509250565b6000806040838503121561238657600080fd5b6000612394858286016121b1565b92505060206123a5858286016121c6565b9150509250929050565b600080604083850312156123c257600080fd5b60006123d0858286016121b1565b92505060206123e18582860161222f565b9150509250929050565b6000602082840312156123fd57600080fd5b600061240b848285016121db565b91505092915050565b60006020828403121561242657600080fd5b6000612434848285016121f0565b91505092915050565b60006020828403121561244f57600080fd5b600061245d8482850161222f565b91505092915050565b6000806040838503121561247957600080fd5b60006124878582860161222f565b92505060206124988582860161222f565b9150509250929050565b6124ab81612f0a565b82525050565b6124ba81612f1c565b82525050565b60006124cb82612db2565b6124d58185612dc8565b93506124e5818560208601612f8d565b6124ee81613163565b840191505092915050565b600061250482612dbd565b61250e8185612dd9565b935061251e818560208601612f8d565b61252781613163565b840191505092915050565b600061253d82612dbd565b6125478185612dea565b9350612557818560208601612f8d565b80840191505092915050565b6000815461257081612fc0565b61257a8186612dea565b9450600182166000811461259557600181146125a6576125d9565b60ff198316865281860193506125d9565b6125af85612d9d565b60005b838110156125d1578154818901526001820191506020810190506125b2565b838801955050505b50505092915050565b60006125ef603283612dd9565b91506125fa82613174565b604082019050919050565b6000612612602583612dd9565b915061261d826131c3565b604082019050919050565b6000612635601c83612dd9565b915061264082613212565b602082019050919050565b6000612658602483612dd9565b91506126638261323b565b604082019050919050565b600061267b601983612dd9565b91506126868261328a565b602082019050919050565b600061269e602c83612dd9565b91506126a9826132b3565b604082019050919050565b60006126c1600d83612dea565b91506126cc82613302565b600d82019050919050565b60006126e4604b83612dea565b91506126ef8261332b565b604b82019050919050565b6000612707603883612dd9565b9150612712826133a0565b604082019050919050565b600061272a602a83612dd9565b9150612735826133ef565b604082019050919050565b600061274d602983612dd9565b91506127588261343e565b604082019050919050565b6000612770602e83612dd9565b915061277b8261348d565b604082019050919050565b6000612793600283612dea565b915061279e826134dc565b600282019050919050565b60006127b6602083612dd9565b91506127c182613505565b602082019050919050565b60006127d9603183612dd9565b91506127e48261352e565b604082019050919050565b60006127fc602c83612dd9565b91506128078261357d565b604082019050919050565b600061281f602f83612dd9565b915061282a826135cc565b604082019050919050565b6000612842600a83612dea565b915061284d8261361b565b600a82019050919050565b6000612865602183612dd9565b915061287082613644565b604082019050919050565b6000612888601d83612dea565b915061289382613693565b601d82019050919050565b60006128ab603183612dd9565b91506128b6826136bc565b604082019050919050565b6128ca81612f74565b82525050565b6128e16128dc82612f74565b61306c565b82525050565b60006128f38284612532565b915081905092915050565b600061290a8285612532565b91506129168284612532565b91508190509392505050565b600061292e8285612563565b915061293a8284612532565b9150612945826126b4565b91508190509392505050565b600061295c82612835565b91506129688285612532565b9150612973826126d7565b915061297f8284612532565b915061298a82612786565b91508190509392505050565b60006129a18261287b565b91506129ad8284612532565b915081905092915050565b60006129c482866128d0565b6020820191506129d482856128d0565b6020820191506129e48284612532565b9150819050949350505050565b6000602082019050612a0660008301846124a2565b92915050565b6000608082019050612a2160008301876124a2565b612a2e60208301866124a2565b612a3b60408301856128c1565b8181036060830152612a4d81846124c0565b905095945050505050565b6000604082019050612a6d60008301856124a2565b612a7a60208301846128c1565b9392505050565b6000602082019050612a9660008301846124b1565b92915050565b60006020820190508181036000830152612ab681846124f9565b905092915050565b60006040820190508181036000830152612ad881856124f9565b9050612ae760208301846128c1565b9392505050565b60006060820190508181036000830152612b0881866124f9565b9050612b1760208301856128c1565b612b2460408301846124a2565b949350505050565b60006020820190508181036000830152612b45816125e2565b9050919050565b60006020820190508181036000830152612b6581612605565b9050919050565b60006020820190508181036000830152612b8581612628565b9050919050565b60006020820190508181036000830152612ba58161264b565b9050919050565b60006020820190508181036000830152612bc58161266e565b9050919050565b60006020820190508181036000830152612be581612691565b9050919050565b60006020820190508181036000830152612c05816126fa565b9050919050565b60006020820190508181036000830152612c258161271d565b9050919050565b60006020820190508181036000830152612c4581612740565b9050919050565b60006020820190508181036000830152612c6581612763565b9050919050565b60006020820190508181036000830152612c85816127a9565b9050919050565b60006020820190508181036000830152612ca5816127cc565b9050919050565b60006020820190508181036000830152612cc5816127ef565b9050919050565b60006020820190508181036000830152612ce581612812565b9050919050565b60006020820190508181036000830152612d0581612858565b9050919050565b60006020820190508181036000830152612d258161289e565b9050919050565b6000602082019050612d4160008301846128c1565b92915050565b6000612d51612d62565b9050612d5d8282612ff2565b919050565b6000604051905090565b600067ffffffffffffffff821115612d8757612d86613134565b5b612d9082613163565b9050602081019050919050565b60008190508160005260206000209050919050565b600081519050919050565b600081519050919050565b600082825260208201905092915050565b600082825260208201905092915050565b600081905092915050565b6000612e0082612f74565b9150612e0b83612f74565b9250827fffffffffffffffffffffffffffffffffffffffffffffffffffffffffffffffff03821115612e4057612e3f6130a7565b5b828201905092915050565b6000612e5682612f74565b9150612e6183612f74565b925082612e7157612e706130d6565b5b828204905092915050565b6000612e8782612f74565b9150612e9283612f74565b9250817fffffffffffffffffffffffffffffffffffffffffffffffffffffffffffffffff0483118215151615612ecb57612eca6130a7565b5b828202905092915050565b6000612ee182612f74565b9150612eec83612f74565b925082821015612eff57612efe6130a7565b5b828203905092915050565b6000612f1582612f54565b9050919050565b60008115159050919050565b60007fffffffff0000000000000000000000000000000000000000000000000000000082169050919050565b600073ffffffffffffffffffffffffffffffffffffffff82169050919050565b6000819050919050565b82818337600083830152505050565b60005b83811015612fab578082015181840152602081019050612f90565b83811115612fba576000848401525b50505050565b60006002820490506001821680612fd857607f821691505b60208210811415612fec57612feb613105565b5b50919050565b612ffb82613163565b810181811067ffffffffffffffff8211171561301a57613019613134565b5b80604052505050565b600061302e82612f74565b91507fffffffffffffffffffffffffffffffffffffffffffffffffffffffffffffffff821415613061576130606130a7565b5b600182019050919050565b6000819050919050565b600061308182612f74565b915061308c83612f74565b92508261309c5761309b6130d6565b5b828206905092915050565b7f4e487b7100000000000000000000000000000000000000000000000000000000600052601160045260246000fd5b7f4e487b7100000000000000000000000000000000000000000000000000000000600052601260045260246000fd5b7f4e487b7100000000000000000000000000000000000000000000000000000000600052602260045260246000fd5b7f4e487b7100000000000000000000000000000000000000000000000000000000600052604160045260246000fd5b6000601f19601f8301169050919050565b7f4552433732313a207472616e7366657220746f206e6f6e20455243373231526560008201527f63656976657220696d706c656d656e7465720000000000000000000000000000602082015250565b7f4552433732313a207472616e736665722066726f6d20696e636f72726563742060008201527f6f776e6572000000000000000000000000000000000000000000000000000000602082015250565b7f4552433732313a20746f6b656e20616c7265616479206d696e74656400000000600082015250565b7f4552433732313a207472616e7366657220746f20746865207a65726f2061646460008201527f7265737300000000000000000000000000000000000000000000000000000000602082015250565b7f4552433732313a20617070726f766520746f2063616c6c657200000000000000600082015250565b7f4552433732313a206f70657261746f7220717565727920666f72206e6f6e657860008201527f697374656e7420746f6b656e0000000000000000000000000000000000000000602082015250565b7f3c2f746578743e3c2f7376673e00000000000000000000000000000000000000600082015250565b7f222c20226465736372697074696f6e223a202263616e2075206765742050415060008201527f5059203f222c2022696d616765223a2022646174613a696d6167652f7376672b60208201527f786d6c3b6261736536342c000000000000000000000000000000000000000000604082015250565b7f4552433732313a20617070726f76652063616c6c6572206973206e6f74206f7760008201527f6e6572206e6f7220617070726f76656420666f7220616c6c0000000000000000602082015250565b7f4552433732313a2062616c616e636520717565727920666f7220746865207a6560008201527f726f206164647265737300000000000000000000000000000000000000000000602082015250565b7f4552433732313a206f776e657220717565727920666f72206e6f6e657869737460008201527f656e7420746f6b656e0000000000000000000000000000000000000000000000602082015250565b7f45524337323155524953746f726167653a2055524920736574206f66206e6f6e60008201527f6578697374656e7420746f6b656e000000000000000000000000000000000000602082015250565b7f227d000000000000000000000000000000000000000000000000000000000000600082015250565b7f4552433732313a206d696e7420746f20746865207a65726f2061646472657373600082015250565b7f45524337323155524953746f726167653a2055524920717565727920666f722060008201527f6e6f6e6578697374656e7420746f6b656e000000000000000000000000000000602082015250565b7f4552433732313a20617070726f76656420717565727920666f72206e6f6e657860008201527f697374656e7420746f6b656e0000000000000000000000000000000000000000602082015250565b7f4552433732314d657461646174613a2055524920717565727920666f72206e6f60008201527f6e6578697374656e7420746f6b656e0000000000000000000000000000000000602082015250565b7f7b226e616d65223a202200000000000000000000000000000000000000000000600082015250565b7f4552433732313a20617070726f76616c20746f2063757272656e74206f776e6560008201527f7200000000000000000000000000000000000000000000000000000000000000602082015250565b7f646174613a6170706c69636174696f6e2f6a736f6e3b6261736536342c000000600082015250565b7f4552433732313a207472616e736665722063616c6c6572206973206e6f74206f60008201527f776e6572206e6f7220617070726f766564000000000000000000000000000000602082015250565b61371481612f0a565b811461371f57600080fd5b50565b61372b81612f1c565b811461373657600080fd5b50565b61374281612f28565b811461374d57600080fd5b50565b61375981612f74565b811461376457600080fd5b5056fe416e204e465420772f20494420257320686173206265656e206d696e74656420746f2025734142434445464748494a4b4c4d4e4f505152535455565758595a6162636465666768696a6b6c6d6e6f707172737475767778797a303132333435363738392b2fa2646970667358221220ce26ea0d3705240a04fde6ce33f50b6203beda3072b4df40131f147584af1df264736f6c634300080400333c73766720786d6c6e733d27687474703a2f2f7777772e77332e6f72672f323030302f73766727207072657365727665417370656374526174696f3d27784d696e594d696e206d656574272076696577426f783d273020302033353020333530273e3c7374796c653e2e62617365207b2066696c6c3a2077686974653b20666f6e742d66616d696c793a2073657269663b20666f6e742d73697a653a20323470783b207d3c2f7374796c653e3c726563742077696474683d273130302527206865696768743d2731303025272066696c6c3d27626c61636b27202f3e3c7465787420783d273530252720793d273530252720636c6173733d27626173652720646f6d696e616e742d626173656c696e653d276d6964646c652720746578742d616e63686f723d276d6964646c65273e",
  "linkReferences": {},
  "deployedLinkReferences": {}
}